:020000040000fa
:080000000008040000000000ec
:020000040000fa
:040008007e0900006d
:020000040000fa
:04000c009409000053
:020000040000fa
:04001000d60900000d
:020000040000fa
:04001400aa09000035
:020000040000fa
:04001800c00900001b
:020000040000fa
:04001c00fe090000d9
:020000040000fa
:04002000ea090000e9
:020000040000fa
:04002400fe090000d1
:020000040000fa
:04002800fe090000cd
:020000040000fa
:04002c00fe090000c9
:020000040000fa
:04003000fe090000c5
:020000040000fa
:0400340004090000bb
:020000040000fa
:04003800fe090000bd
:020000040000fa
:04003c00fe090000b9
:020000040000fa
:04004000fe090000b5
:020000040000fa
:040044003a09000075
:020000040000fa
:04004800fe090000ad
:020000040000fa
:04004c00fe090000a9
:020000040000fa
:04005000fe090000a5
:020000040000fa
:04005400fe090000a1
:020000040000fa
:04005800fe0900009d
:020000040000fa
:04005c00fe09000099
:020000040000fa
:04006000fe09000095
:020000040000fa
:04006400fe09000091
:020000040000fa
:04006800fe0900008d
:020000040000fa
:04006c00fe09000089
:020000040000fa
:04007000fe09000085
:020000040000fa
:04007400fe09000081
:020000040000fa
:04007800fe0900007d
:020000040000fa
:04007c00fe09000079
:020000040000fa
:04008000fe09000075
:020000040000fa
:04008400fe09000071
:020000040000fa
:04008800fe0900006d
:020000040000fa
:04008c00fe09000069
:020000040000fa
:04009000fe09000065
:020000040000fa
:04009400fe09000061
:020000040000fa
:04009800fe0900005d
:020000040000fa
:04009c00fe09000059
:020000040000fa
:0400a000fe09000055
:020000040000fa
:0400a400fe09000051
:020000040000fa
:0400a800fe0900004d
:020000040000fa
:0400ac00fe09000049
:020000040000fa
:0400b000fe09000045
:020000040000fa
:0400b400fe09000041
:020000040000fa
:0400b800fe0900003d
:020000040000fa
:0400bc00fe09000039
:020000040000fa
:0400c000fe09000035
:020000040000fa
:0400c400fe09000031
:020000040000fa
:0400c800fe0900002d
:020000040000fa
:0400cc00fe09000029
:020000040000fa
:0400d000fe09000025
:020000040000fa
:0400d400fe09000021
:020000040000fa
:0400d800fe0900001d
:020000040000fa
:0400dc00fe09000019
:020000040000fa
:0400e000fe09000015
:020000040000fa
:0400e400fe09000011
:020000040000fa
:0400e800fe0900000d
:020000040000fa
:0400ec00fe09000009
:020000040000fa
:0400f000fe09000005
:020000040000fa
:0400f400fe09000001
:020000040000fa
:0400f800fe090000fd
:020000040000fa
:0400fc00fe090000f9
:020000040000fa
:04010000fe090000f4
:020000040000fa
:04010400fe090000f0
:020000040000fa
:04010800fe090000ec
:020000040000fa
:04010c00fe090000e8
:020000040000fa
:04011000fe090000e4
:020000040000fa
:04011400fe090000e0
:020000040000fa
:04011800fe090000dc
:020000040000fa
:04011c00fe090000d8
:020000040000fa
:04012000fe090000d4
:020000040000fa
:04012400fe090000d0
:020000040000fa
:04012800fe090000cc
:020000040000fa
:04012c00fe090000c8
:020000040000fa
:04013000fe090000c4
:020000040000fa
:04013400fe090000c0
:020000040000fa
:04013800fe090000bc
:020000040000fa
:04013c00fe090000b8
:020000040000fa
:04014000fe090000b4
:020000040000fa
:04014400fe090000b0
:020000040000fa
:04014800fe090000ac
:020000040000fa
:04014c00fe090000a8
:020000040000fa
:04015000fe090000a4
:020000040000fa
:04015400fe090000a0
:020000040000fa
:04015800fe0900009c
:020000040000fa
:04015c00fe09000098
:020000040000fa
:04016000fe09000094
:020000040000fa
:04016400fe09000090
:020000040000fa
:04016800fe0900008c
:020000040000fa
:04016c00fe09000088
:020000040000fa
:04017000fe09000084
:020000040000fa
:04017400fe09000080
:020000040000fa
:04017800fe0900007c
:020000040000fa
:04017c00fe09000078
:020000040000fa
:04018000fe09000074
:020000040000fa
:04018400fe09000070
:020000040000fa
:04018800fe0900006c
:020000040000fa
:04018c00fe09000068
:020000040000fa
:04019000fe09000064
:020000040000fa
:04019400fe09000060
:020000040000fa
:04019800fe0900005c
:020000040000fa
:04019c00fe09000058
:020000040000fa
:0401a000fe09000054
:020000040000fa
:0401a400fe09000050
:020000040000fa
:0401a800fe0900004c
:020000040000fa
:0401ac00fe09000048
:020000040000fa
:0401b000fe09000044
:020000040000fa
:0401b400fe09000040
:020000040000fa
:0401b800fe0900003c
:020000040000fa
:0401bc00fe09000038
:020000040000fa
:0401c000fe09000034
:020000040000fa
:0401c400fe09000030
:020000040000fa
:0401c800fe0900002c
:020000040000fa
:0401cc00fe09000028
:020000040000fa
:0401d000fe09000024
:020000040000fa
:0401d400fe09000020
:020000040000fa
:0401d800fe0900001c
:020000040000fa
:0401dc00fe09000018
:020000040000fa
:0401e000fe09000014
:020000040000fa
:0401e400fe09000010
:020000040000fa
:0401e800fe0900000c
:020000040000fa
:0401ec00fe09000008
:020000040000fa
:0401f000fe09000004
:020000040000fa
:0401f400fe09000000
:020000040000fa
:0401f800fe090000fc
:020000040000fa
:0401fc00fe090000f8
:020000040000fa
:10100000af8020000eff27000e01880000000000c6
:10101000000020000000e00002003200000120007b
:101020002002880014000700f60007000000e0001e
:1010300003003a00c04d21000100200002003700eb
:101040000000200001002000810f7000010032002c
:1010500014000700000020000000e0000200320041
:101060000000020000000000f61102000000000075
:101070000040da000000fe004440a90060062000a5
:101080000000e000030032000020200090018800f2
:101090004440a800000006008a1f78008b1f7800db
:1010a00000000600a1028800800478000000eb0028
:1010b0001f003700e284440054a0b4009905ba0030
:1010c000e284440054a0b4009906ba00e2844400cb
:1010d00054a0b4000006eb00476fde00fd07b2002d
:1010e000ae018800636ce10003003a00eaff0700ec
:1010f0000000eb000e003700606ce10008003a00d1
:10110000004deb000a05e800020039003420ec0035
:101110000af0a0008b05e900f9ff3e00040037004b
:101120006168e100010032000086eb000b0007005f
:1011300019c7ba001905ba000e04e00003003a000e
:101140000a00e000dbff3a0000000600fe07b200e4
:10115000ae0288008a047800f5ff37000cd0a300a7
:10116000e20f4d001c00390089027800354dba00ad
:101170000a05e800020039003420ec000af0a00063
:101180008b05e9000f003200254dba000a05e80082
:10119000020039003420ec000af0a0008b05e900c1
:1011a000080032000c00e0000600320015cdba0045
:1011b0000a05e800020039003420ec000af0a00023
:1011c0008b05e9008984e80054a0b4000b00e0001e
:1011d000e2ff3a00000006009902ba00055d7800bf
:1011e0008b05e900f7ff3200c82ade00055d7800b4
:1011f0008b05e900f3ff32000c00e000f1ff320044
:1012000019ddba00eeff37003600f800809fbe00ff
:10121000829fbe00849fbe00869fbe003200f80001
:101220003400f80010002000a001880000202000f9
:101230009001880000408000114080006100400063
:10124000e080480000408800114088006000b8003d
:10125000410507003400f9003200f9004f03be00d9
:101260004f02be004f01be004f00be003600f90025
:10127000004006003600f800809fbe00829fbe003e
:10128000849fbe00869fbe003200f8003400f80044
:1012900010002000a001880000202000900188009c
:1012a0000448e2000a00320004c8bf00e14f5000c9
:1012b00004003a00b606a90020c0b30004e8b70055
:1012c00003003700b606a80010c0b30004e8b7005a
:1012d0008000eb00100020001f0507003400f9001b
:1012e0003200f9004f03be004f02be004f01be00a6
:1012f0004f00be003600f900004006003200f80042
:101300003400f800881f780018002000a801880029
:1013100008202000980188004f0478008020a90050
:10132000b606a900ffff37003200f8003400f800cd
:10133000881f780018002000a801880008202000dd
:10134000980188004f0478008060a900b606a900c3
:10135000ffff37003200f8003400f800881f7800e3
:1013600018002000a80188000820200098018800ab
:101370004f0478008040a900b606a900ffff37009f
:101380003200f8003400f800881f780018002000b0
:10139000a801880008202000980188004f047800e8
:1013a0008080a900b606a900ffff37003200f800d0
:1013b0003400f800881f780018002000a801880079
:1013c00008202000980188004f047800b606a90084
:1013d000ffff37003200f8003400f800881f780063
:1013e00018002000a801880008202000980188002b
:1013f0004f047800b606a900ffff37000040da006e
:081400000000fe0000000500e1
:020000040000fa
:10140800d4070000d4070000d6070000d607000064
:10141800d8070000d8070000da070000da07000044
:10142800dc070000dc070000de070000de07000024
:10143800e0070000e0070000e2070000e207000004
:10144800e4070000e4070000e6070000e6070000e4
:10145800e8070000e8070000ea070000ea070000c4
:10146800ec070000ec070000ee070000ee070000a4
:10147800f0070000f0070000f2070000f207000084
:10148800f4070000f4070000f6070000f607000064
:10149800f8070000f8070000424c0000554500001e
:1014a80042550000535f0000424f00004f540000b7
:1014b8004c4f000041440000455200005f310000dd
:0c14c8005f33000000000000030500007e
:020000040000fa
:1014d400a266a90000000600889fbe008a9fbe0085
:1014e4008c9fbe000c8021000d002000088020008d
:1014f400090020000a802a00ab0020000c00be0076
:10150400e60407000c0644008d864c008a0f560042
:101514008b8f5e00f9ff3a004f06be004f05be00f8
:101524004f04be00000006000400fa00889fbe00bd
:101534008a9fbe008c9fbe00000578003a4490004c
:101544008884fb00080020004a4190000281fb00cf
:101554008001eb004818dd00c810de008100700037
:101564004810dd0008044000898448005a40900077
:101574000080fb008000eb000804400089844800e0
:1015840010c0b3003bc0b300fc7f21000d0020005d
:10159400380037008c0f54008d8f5c0004003e002f
:1015a40062044400e0844c00e3c545003100370088
:1015b4000b80fb0080004500614290008482fb00a8
:1015c40004002000714390000683fb008003eb00bd
:1015d4004839dd00c831de00830171004831dd0087
:1015e4000402410085824900814890000181fb008a
:1015f4008001eb0082bf9f0093bf9f008080e800c2
:1016040001014500324190000283fb008003eb009e
:1016140081004500114190008281fb0002002000fe
:1016240006014100878149000000450040439000c5
:101634000683fb008003eb004838dd00c830de0081
:10164400810070004830dd000201400083814800c1
:101654000fb897009fb897000402400085824800a5
:101664000800be00a3040700e6c545006404440066
:10167400e0844c00aa40900081cf55000200310064
:10168400e14f5000c3ff32004f06be004f05be00bd
:101694004f04be000080fa00000006000000fa00bb
:1016a400881f7800014278000f0478000304e000ea
:1016b40001003a0013c0b30063c341008682fb00fb
:1016c4008582e800e51fb2008f0078008587470017
:1016d40084487800964098000200e000030032003d
:1016e400e24f530004003e000a0037000041eb00c3
:1016f400a2409800070037000102e8008203e800d6
:101704008382fb0085824300326a7800850f510092
:10171400fdff3a008042eb000604e00008003200be
:101724000102780083c1e8008381fb0083814000cb
:101734008301e800b4c26a00830f5200fdff3a003f
:101744000681fb000281400075f99f000641780084
:1017540070020700880778004f0478000080fa00c0
:10176400000006008041eb001204e0000500320096
:101774008341e8000382fb0062427a000404e00033
:10178400fbff3a00c5ff070000000600204290005e
:10179400e34142001041900082c169000404e0006a
:1017a400080032000081e8000442e9000482fb00e2
:1017b4006302420004004000d2c16900800f51005e
:1017c400fdff3a000040eb0081cf510001003a00d8
:1017d40030c0b300000006000201fa00889fbe007a
:1017e4008a9fbe00000578000104780010c0b30091
:1017f400e0f79d0098049200e18f54002b0036001e
:101804001100200008007800880107000080fb0018
:10181400808f540025003a00080078007101070009
:10182400f0f79d00080078006e0107006340500047
:1018340080ff9d00160032008044eb00894578004b
:10184400180092000000e000080032000800780050
:10185400640107008980fb0062ef2f000f01410043
:1018640081004100b0409800050037000980fb006a
:1018740061ef2f008f804000008040003b409800c3
:101884008944e8000ff89500894f5000ecff3e00b2
:1018940008007800530107008040780060ef2f00b3
:1018a4000f004000b9ff0700e0f79d0062ef2f0032
:1018b4000281470001010900325d78002a10b1005d
:1018c4000a0078004f05be004f04be000080fa00f5
:1018d40000000600889fbe008a1f7800000578007b
:1018e400010478006000b8007a02070080447800a0
:1018f400100020000100200076020700c84cdd0023
:101904000080fb00890470008904e900e38f44002f
:101914001000360028409000e24f50000d003a00bd
:10192400384190006000b8008b02070048419000e5
:101934001000200001002000870207008041eb0016
:101944000001eb0001c1b3000a00780053ff070057
:10195400050037008041eb000001eb0011c1b3002a
:101964000a0078004dff07004f0578004f04be00c1
:1019740000000600889fbe008a1f7800800478005b
:1019840001057800500020000100200051020700ea
:101994000044780060002000010020004d02070090
:1019a400e14f440003003a00e14f400016003a00c2
:1019b400040037000804e00013003a000004e000cb
:1019c40011003a002a409000e24f50000e003a0005
:1019d4003a41900050002000010020005e02070000
:1019e4004a41900060002000010020005a020700d4
:1019f4008041eb000001eb0051c1b3000900780005
:101a040026ff0700050037008041eb000001eb00d2
:101a140061c1b3000900780020ff07004f0578007a
:101a24004f04be00000006000601fa00889fbe00b5
:101a34008a1f78000004be00950307003801920055
:101a4400c801920002005000838058004206200022
:101a5400820f5000e08f580007003600080078001d
:101a6400280107008041eb000001eb0080c0eb007f
:101a74000800780009ff07008800780040ef2f0075
:101a84000f00400054ff07004ff09500e34f500053
:101a94008b003a001904e00003003a00b606a800df
:101aa40010c0b300804c78005ff095000004e000a3
:101ab40005003a0002a5280011c0b3000800780010
:101ac40028ff070087003700e24f500007003a0064
:101ad40081fe07008041eb000001eb0031c0b30040
:101ae40008007800edfe07007e003700e44f500048
:101af40011003a0040ef2f000f0040008afe07005b
:101b0400e14f500006003a008041eb000001eb0079
:101b140051c0b30008007800e0fe070071003700f0
:101b24008041eb000001eb0061c0b30008007800c5
:101b3400dafe07006b003700e74f50000b003a0055
:101b44008041eb000001eb0081c0b3000800780085
:101b5400d2fe070000802000000000000000e90021
:101b6400fdff3a005afe07005e003700e94f5000bf
:101b74000e003a008041eb000001eb00a1c0b3006d
:101b840008007800c5fe07000000eb00018020007b
:101b9400000000000000e800810f5000fcff3a0044
:101ba40020c0b300804c78004e003700eb4f50004b
:101bb40014003a002000200001002000c5010700a5
:101bc400804478003000200001002000c10107009b
:101bd400004578004000200001002000bd010700fe
:101be400e9f79f00faf79f0080ff9f0033c0b3001e
:101bf4006a815700c1c0b30008007800a7fe07003f
:101c040038003700ed4f50000e003a006000b80075
:101c1400b00107008044780010002000010020007b
:101c2400ac010700e9f79f00f0f79f0023c0b30061
:101c34006a815700e1c0b3000800780097fe0700ee
:101c440028003700ef4f500005003a0041ef2f0005
:101c54008f804000080078001eff07002100370035
:101c6400f24f50000f003a00500020000100200005
:101c740098010700804478006000200001002000e3
:101c840094010700e9f79f00f0f79f0023c0b30019
:101c94006a81570031c1b300080078007ffe070055
:101ca40010003700f44f50000e003a0041ef2f00af
:101cb4008f804000080078002eff070009003700dd
:101cc4000004e00007003a00080078008d000700d7
:101cd4008041eb000001eb0080c0eb0008007800bd
:101ce4006efe07004f0578004f04be000080fa0026
:101cf40000000600a1202000808040009180fb00ad
:101d0400818040006280200000b17800000006005d
:101d14000080fb000000e90000004000618020001a
:101d24006100780000000600889fbe0080447800af
:101d340009407800f6ff070000047800f20b200049
:101d4400000880000001610071052000600420008b
:101d54000310200080497800814978008249780086
:101d6400e1cf540003003200e2cf540006003a00f1
:101d74000300370000fc2f00b427b6000200370030
:101d840000fc2f00b627b600b02020000800400059
:101d94008000eb0010407800f402070002042000e9
:101da400000880000001610071052000600420002b
:101db4000310200080497800814978008249780026
:101dc400e80092000000eb00c0009800e8009200d8
:101dd40080087800e8009200900098004f04be004c
:101de400000006008000920060c178008041eb0092
:101df40003f078008100e80001009a00f31f20003e
:101e0400838f5000020036008000eb0001009a002e
:101e1400900092000100e000020032008100e9001d
:101e240011009a00024078000000060000019200b0
:101e34000100e00008003200f31f20000002eb0064
:101e44000201e800830f510001003600040178000c
:101e54008100e900faff3a006040790000000600c2
:101e6400889fbe008a1f7800000478001920200093
:101e74000a2020001c003700100190009000900000
:101e84000118a30003003200900090000110a2008a
:101e94001100980068009200b000900018009200b1
:101ea400890f5000100032006e0161000e003a00ec
:101eb400280192008a0f510002003a000001eb0051
:101ec40022049a0028019200017479000201e800ba
:101ed40022049a000000e80010049a006c02070033
:101ee40030049a0041049a00680092009000900027
:101ef4000108a300e0ff3a004f0578004f04be003c
:101f0400000006008000eb0011009a0021009a00f6
:101f140001009a00000006000e02fa00889fbe002d
:101f24008a9fbe008c9fbe00800578000144780023
:101f3400824678008344780004457800054678009a
:101f44000840e90080f79f0099f79f0060de2f00aa
:101f54000f004000ebff0700f20b20000108800097
:101f640001016100710520006004200003102000bd
:101f7400804978008149780082497800e14f540013
:101f840003003200e24f540010003a00080037000a
:101f94008039200090bf9f00fd03b20000fc2f0099
:101fa400b407b60000807600a03d88000700370023
:101fb400e03a200090bf9f00fd03b20000fc2f0018
:101fc400b607b60000807600b03d88008ff0970019
:101fd4000180fb0081a62800e14078008180fb009d
:101fe4000940780061020700020420000008800014
:101ff400000161007105200060042000031020002e
:102004008049780081497800824978008a80fb0001
:102014001fb89700410098001fb897000008eb0014
:102024001fb8970010f0a200e14f560003003a00d9
:102034001fb897001010a20004003700e24f5600aa
:1020440002003a001fb897001020a20020c2b3007b
:10205400804f550002003a001fb897001030a200cc
:102064001fb8970010019000014021008100690011
:102074001100980061de2f008f80400006010900e6
:10208400b11d7800eb20b100e120b1000b00780015
:102094004f06be004f05be004f04be000080fa008c
:1020a4000000060000019200900292008001eb0003
:1020b4000500e000150032008180fb0060427900d9
:1020c4000402fb0013002000f61f20008003eb0035
:1020d400810f520007003a000c0037008301e8002a
:1020e4000201e800604279000402fb00810f520003
:1020f40006003200860f5100010036000701780007
:10210400838f5200f5ff3a008001eb000300780052
:10211400000006000204e0000d0032000102e800a5
:102124000241e9000281fb000202420060019200c8
:10213400b181fb0023019800e0019200130190009b
:102144000298a300fdff3a00848f5000f7ff3a0085
:10215400000006000000fb0000208800fc03ab0028
:10216400feff320000208000000006009f06a90048
:10217400a106a800f423ef00fc03a900f20b200041
:102184000008800000016100600420007105200047
:102194000310200080497800814978008249780042
:1021a40002fc2f00c33d8000030161000220a00057
:1021b400c23d880002f82f00243f800084016100a2
:1021c4000330a000233f8800933f80000301610097
:1021d4007200b300923f88000204200004088000cb
:1021e40004016100031020008049780081497800cf
:1021f400824978000424ef00fcc3a90000122800df
:10220400a01f8800000006009f06a900a106a800e0
:10221400f423ef00fc03a900f20b20000008800067
:1022240000016100600420007105200003102000fb
:1022340080497800814978008249780002fc2f00a7
:10224400837b20009309610002f82f00437e200065
:1022540093096100237f2000930961000204200098
:102264000308800003016100031020008049780006
:1022740081497800824978000424ef00fcc3a90056
:10228400f423ef0000000600889fbe0058c0b3008e
:102294008044eb00a106a90008407800adff0700c8
:1022a40009407800abff0700a106a8000008a300be
:1022b400f8ff3a004f04be0000000600f2ff0700da
:1022c400a106a90060c0b300a2ff0700a106a800f0
:1022d40000000600889fbe000004be00eaff07005d
:1022e400a106a90030c0b3009aff07004048de00f1
:1022f40001002000008070008000780001f0a70039
:102304008100ea008100ea004f08de0091ff070027
:102314004849dd004840de0000007100c848de0086
:10232400008070008000780001f0a7008100ea00be
:102334008100ea004f08de0086ff070008407800ad
:1023440084ff07000040eb0082ff0700a106a800fd
:102354004f04be0000000600889fbe008a1f78005c
:102364000004be0002457800d4ff0700a106a900be
:1023740020c0b30077ff07004048de0001002000c2
:10238400008070008000780001f0a7008100ea005e
:102394008100ea004f08de006eff07004849dd00b7
:1023a4004840de0000007100c848de000080700074
:1023b4008000780001f0a7008100ea008100ea00b3
:1023c4004f08de0063ff07000840780061ff070044
:1023d4000a4078005fff0700a106a8004f057800b7
:1023e4004f04be00000006001e04fa00889fbe00d1
:1023f4008300a9007e26ef00a626ef00ba26ef0090
:10240400ce26ef00e226ef00b206a900b286a900ac
:102414009e66a9009ea6a800c626a900b266a900c9
:1024240076e6a900b246a900a266a800ca26a800ba
:10243400b666a9007ae6a800b646a900b606a900c1
:10244400e000070049ff0700c0de2f000f00400036
:102454000048eb0070002000010020009dff0700f1
:10246400004478000804e00003003a00a0a6ab0092
:10247400520032003800370011c0b300c0de2f0014
:102484000f004000014878000041eb00700020007c
:1024940001002000b0ff0700fa000700e24f5400db
:1024a40010003a00b686a800e8de2f000f044400ae
:1024b4008042eb0024c2b300a3c1b30052c1b300f5
:1024c40021c0b3000800780093fe0700e0bd2f0090
:1024d4008080470006010900b8187800e820b100a0
:1024e4000e003700e8de2f000f04440025c0b300bf
:1024f40024c2b30083c1b30072c1b3008540780025
:102504000800780084fe0700e0bd2f0080804700ab
:1025140006010900b8187800e820b100e0bd2f00da
:102524000f004000f3fd07000b003700e0bd2f0053
:102534000f0040004afe07000fb095000000e000c5
:102544000700320088007800e0bd2f000f00400033
:1025540035fd070002003700c8de2f000f044400d9
:1025640018407800e14f5000f0ff3200e24f500075
:1025740001003a00ecfd070023ff0700b606a9009e
:10258400b686a900a80f200009002000c00007009b
:10259400880f5000898f5800fcff3600a500070003
:1025a4008300a80000002200000001000000eb00ee
:1025b4004f04be000080fa000000060011c0b30002
:1025c400c0de2f000f004000014878000041eb00fe
:1025d40070002000010020005fff0700a900070031
:1025e400c0ff37004100dd00010040004100dd0074
:1025f400006001009960a900000006009960a8002d
:10260400000006009bc0a900000006009bc0a800b3
:10261400000006004100dd00010040004100dd0033
:10262400006001008960a900000006008960a8001c
:10263400000006008bc0a900000006008bc0a800a3
:102644000000060072002000828060006602b8006c
:10265400046001004c10dd000080ea00ac20b600ec
:102664004c08dd00ac20b700000006004810dd0077
:102674000080ea00b620b6004808dd00b620b700a6
:10268400000006004100dd00010040004100dd00c3
:10269400006001009980a900000006009980a8004c
:1026a400000006009be0a900000006009be0a800d3
:1026b400000006004100dd00010040004100dd0093
:1026c400006001008980a900000006008980a8003c
:1026d400000006008be0a900000006008be0a800c3
:1026e4000000060072002000828060006602b800cc
:1026f400046001004010dd000080ea00ae20b60056
:102704004008dd00ae20b700000006004c10dd00dc
:102714000080ea00b620b6004c08dd00b620b70001
:10272400000006004100dd00010040004100dd0022
:10273400006001009860a900000006009860a800ed
:102744000000060098e0a9000000060098e0a80038
:10275400000006004100dd00010040004100dd00f2
:10276400006001008860a900000006008860a800dd
:102774000000060088e0a9000000060088e0a80028
:102784000000060072002000828060006602b8002b
:10279400046001004c10dd000080ea00a820b600af
:1027a4004c08dd00a820b700000006004c10dd0036
:1027b4000080ea00aa20b6004c08dd00aa20b70079
:1027c400000006009421ef0000002a00a00c8800fd
:1027d40000e82300900c8800210020000000eb009a
:1027e400e8ff07006000b800daff070011002000ce
:1027f4000000eb00cbff0700a021ef0000032a003c
:10280400000d880080912700e00c88001100200052
:1028140010002000dbff07008000eb001000200008
:10282400ccff07001100200010002000bdff0700ae
:10283400000006009421ef009221ef006000b80030
:10284400d0ff07006000b800c2ff07006000b800b6
:10285400b4ff0700a021ef009c21ef008000eb00f3
:1028640010002000c7ff07008000eb0010002000cc
:10287400b8ff07008000eb0010002000a9ff07004c
:102884000000060020c0b30004e8b7000000060002
:102894000040800011408000000006003200240047
:1028a400023b8800213b8800103b88000500fc00a7
:1028b40050052000303b8800a00a2000303b8800ef
:1028c40061e7a800000000000000000001002800eb
:1028d400023b800002806000fdff3a0061c7a9004e
:1028e400000022006007b6000000e9004f00de008f
:1028f4000000060016002400063b8800a60f2000f6
:10290400a6028800213b8800103b88000000eb00f1
:102914000208bb000388bb00200020000408bb00a1
:102924000588bb000500fc0050052000303b8800f2
:10293400a00a2000303b880061e7a80000000000e6
:102944000000000001002800023b800002806000bb
:10295400fdff3a0061c7a900000022006007b6002d
:102964000000e9004f00de00000006000008a3009c
:1029740008003a000080fb000000400042a028004c
:102984006200780002f02f0010016100010841008c
:10299400070037000080fb000000400042a0280030
:1029a400620078001081fb00c808dd0001084100c6
:0429b4000000060019
:020000040000fa
:1029b8000008000006000000800000000608000073
:0c29c8000400000080000000000000007f
:020000040000fa
:020000040015e5
:047e0000f77f000008
:020000040000fa
:020000040015e5
:047e2000fb1f000044
:020000040000fa
:020000040015e5
:047e300009ffff0047
:020000040000fa
:020000040015e5
:047e3800a7ffff00a1
:020000040000fa
:020000040015e5
:047e40009fffff00a1
:020000040000fa
:020000040015e5
:047e4800fbffff003d
:020000040000fa
:020000040015e5
:047e5000dfffff0051
:020000040000fa
:020000040015e5
:047e5800e7ffff0041
:020000040000fa
:020000040100f9
:04300000ffffff00cf
:00000001FF
