:020000040000fa
:080000000008040000000000ec
:020000040000fa
:0400080004090000e7
:020000040000fa
:04000c0004090000e3
:020000040000fa
:0400100004090000df
:020000040000fa
:0400140004090000db
:020000040000fa
:0400180004090000d7
:020000040000fa
:04001c0004090000d3
:020000040000fa
:0400200004090000cf
:020000040000fa
:0400240004090000cb
:020000040000fa
:0400280004090000c7
:020000040000fa
:04002c0004090000c3
:020000040000fa
:0400300004090000bf
:020000040000fa
:0400340004090000bb
:020000040000fa
:0400380004090000b7
:020000040000fa
:04003c0004090000b3
:020000040000fa
:0400400004090000af
:020000040000fa
:0400440004090000ab
:020000040000fa
:0400480004090000a7
:020000040000fa
:04004c0004090000a3
:020000040000fa
:04005000040900009f
:020000040000fa
:04005400040900009b
:020000040000fa
:040058000409000097
:020000040000fa
:04005c000409000093
:020000040000fa
:04006000040900008f
:020000040000fa
:04006400040900008b
:020000040000fa
:040068000409000087
:020000040000fa
:04006c000409000083
:020000040000fa
:04007000040900007f
:020000040000fa
:04007400040900007b
:020000040000fa
:040078000409000077
:020000040000fa
:04007c000409000073
:020000040000fa
:04008000040900006f
:020000040000fa
:04008400040900006b
:020000040000fa
:040088000409000067
:020000040000fa
:04008c000409000063
:020000040000fa
:04009000040900005f
:020000040000fa
:04009400040900005b
:020000040000fa
:040098000409000057
:020000040000fa
:04009c000409000053
:020000040000fa
:0400a000040900004f
:020000040000fa
:0400a400040900004b
:020000040000fa
:0400a8000409000047
:020000040000fa
:0400ac000409000043
:020000040000fa
:0400b000040900003f
:020000040000fa
:0400b400040900003b
:020000040000fa
:0400b8000409000037
:020000040000fa
:0400bc000409000033
:020000040000fa
:0400c000040900002f
:020000040000fa
:0400c400040900002b
:020000040000fa
:0400c8000409000027
:020000040000fa
:0400cc000409000023
:020000040000fa
:0400d000040900001f
:020000040000fa
:0400d400040900001b
:020000040000fa
:0400d8000409000017
:020000040000fa
:0400dc000409000013
:020000040000fa
:0400e000040900000f
:020000040000fa
:0400e400040900000b
:020000040000fa
:0400e8000409000007
:020000040000fa
:0400ec000409000003
:020000040000fa
:0400f00004090000ff
:020000040000fa
:0400f40004090000fb
:020000040000fa
:0400f80004090000f7
:020000040000fa
:0400fc0004090000f3
:020000040000fa
:0401000004090000ee
:020000040000fa
:0401040004090000ea
:020000040000fa
:0401080004090000e6
:020000040000fa
:04010c0004090000e2
:020000040000fa
:0401100004090000de
:020000040000fa
:0401140004090000da
:020000040000fa
:0401180004090000d6
:020000040000fa
:04011c0004090000d2
:020000040000fa
:0401200004090000ce
:020000040000fa
:0401240004090000ca
:020000040000fa
:0401280004090000c6
:020000040000fa
:04012c0004090000c2
:020000040000fa
:0401300004090000be
:020000040000fa
:0401340004090000ba
:020000040000fa
:0401380004090000b6
:020000040000fa
:04013c0004090000b2
:020000040000fa
:0401400004090000ae
:020000040000fa
:0401440004090000aa
:020000040000fa
:0401480004090000a6
:020000040000fa
:04014c0004090000a2
:020000040000fa
:04015000040900009e
:020000040000fa
:04015400040900009a
:020000040000fa
:040158000409000096
:020000040000fa
:04015c000409000092
:020000040000fa
:04016000040900008e
:020000040000fa
:04016400040900008a
:020000040000fa
:040168000409000086
:020000040000fa
:04016c000409000082
:020000040000fa
:04017000040900007e
:020000040000fa
:04017400040900007a
:020000040000fa
:040178000409000076
:020000040000fa
:04017c000409000072
:020000040000fa
:04018000040900006e
:020000040000fa
:04018400040900006a
:020000040000fa
:040188000409000066
:020000040000fa
:04018c000409000062
:020000040000fa
:04019000040900005e
:020000040000fa
:04019400040900005a
:020000040000fa
:040198000409000056
:020000040000fa
:04019c000409000052
:020000040000fa
:0401a000040900004e
:020000040000fa
:0401a400040900004a
:020000040000fa
:0401a8000409000046
:020000040000fa
:0401ac000409000042
:020000040000fa
:0401b000040900003e
:020000040000fa
:0401b400040900003a
:020000040000fa
:0401b8000409000036
:020000040000fa
:0401bc000409000032
:020000040000fa
:0401c000040900002e
:020000040000fa
:0401c400040900002a
:020000040000fa
:0401c8000409000026
:020000040000fa
:0401cc000409000022
:020000040000fa
:0401d000040900001e
:020000040000fa
:0401d400040900001a
:020000040000fa
:0401d8000409000016
:020000040000fa
:0401dc000409000012
:020000040000fa
:0401e000040900000e
:020000040000fa
:0401e400040900000a
:020000040000fa
:0401e8000409000006
:020000040000fa
:0401ec000409000002
:020000040000fa
:0401f00004090000fe
:020000040000fa
:0401f40004090000fa
:020000040000fa
:0401f80004090000f6
:020000040000fa
:0401fc0004090000f2
:020000040000fa
:101000004f8020000eff27000e0188000000000026
:10101000000020000000e00002003200000120007b
:101020002002880014000700790007000000e0009b
:1010300003003a0020f820000100200002003700e1
:101040000000200001002000810f7000010032002c
:1010500014000700000020000000e0000200320041
:101060000000020000000000e00c02000000000090
:101070000040da000000fe004440a900800120008a
:101080000000e000030032000020200090018800f2
:101090004440a800000006008a1f78008b1f7800db
:1010a00000000600a1028800800478000000eb0028
:1010b0001f003700e284440054a0b4009905ba0030
:1010c000e284440054a0b4009906ba00e2844400cb
:1010d00054a0b4000006eb00476fde00fd07b2002d
:1010e000ae018800636ce10003003a00eaff0700ec
:1010f0000000eb000e003700606ce10008003a00d1
:10110000004deb000a05e800020039003420ec0035
:101110000af0a0008b05e900f9ff3e00040037004b
:101120006168e100010032000086eb000b0007005f
:1011300019c7ba001905ba000e04e00003003a000e
:101140000a00e000dbff3a0000000600fe07b200e4
:10115000ae0288008a047800f5ff37000cd0a300a7
:10116000e20f4d001c00390089027800354dba00ad
:101170000a05e800020039003420ec000af0a00063
:101180008b05e9000f003200254dba000a05e80082
:10119000020039003420ec000af0a0008b05e900c1
:1011a000080032000c00e0000600320015cdba0045
:1011b0000a05e800020039003420ec000af0a00023
:1011c0008b05e9008984e80054a0b4000b00e0001e
:1011d000e2ff3a00000006009902ba00055d7800bf
:1011e0008b05e900f7ff3200c82ade00055d7800b4
:1011f0008b05e900f3ff32000c00e000f1ff320044
:1012000019ddba00eeff37000040da000000fe00f2
:0412100000000500d5
:020000040000fa
:10121400424c00005545000042550000535f000059
:10122400424f00004f5400004c4f00004144000066
:10123400455200005f3100005f31000000000000f3
:020000040000fa
:101244009e46a8009e86a90000000600889fbe0056
:101254008a9fbe008c9fbe006000b800e2020700b7
:101264006022b80002802000430020006000b80023
:10127400f302070008802000090020000805be00d2
:101284000c8025005d0020000b00370002802f0039
:10129400f3ff2f000800410089804900f27f2000fd
:1012a40003002000820f5000838f58000200360094
:1012b4000800be00cc0207000804450089844d00e4
:1012c4008c0f54008d8f5c00f0ff3a004f06be0077
:1012d4004f05be004f04be00000006000000fa00e7
:1012e400889fbe00014278000f0478000304e000e8
:1012f4001f00320083c4e8008982fb008582e80075
:10130400e51fb2008f0078008587470084c26c0017
:10131400044c780019449800e2cf54000b003600c6
:101324000803e800020278008403e8008341e9002e
:101334008381fb008383430084017800346b78004d
:1013440093c26a00870f5200fbff3a000981fb0039
:101354000281400075f99f00094178008701070068
:10136400880778004f04be000080fa0000000600e1
:101374008f007800e48747008442780035c0b200cb
:10138400044c780039c0b300194498000041eb00c4
:1013940022449800edff3700e6874700889fbe008f
:1013a4008a9fbe008c9fbe008e1f780000077800c5
:1013b400010578003a4490008884fb00080020006e
:1013c4004a4190000281fb008001eb004818dd00d7
:1013d400c810de00810070004810dd0008044000e1
:1013e400898448005a4090000080fb008000eb0094
:1013f400080440008984480001003a0093ff070074
:1014040010c0b3003bc0b3000c802f00fdff2f00c1
:101414003f0037000801460089814e00f47f200018
:1014240005002000840f5100858f59000300360009
:10143400e30f5400e08f5c0004003e0062044400ab
:10144400e0844c00e3c54500310037000b80fb000d
:1014540080004500614290008482fb00040020006b
:10146400714390000683fb008003eb004839dd00e4
:10147400c831de00830171004831dd0004024100ff
:1014840085824900814890000181fb008001eb00c6
:10149400f2b79f0083bf9f008080e80001014500f0
:1014a400324190000283fb008003eb008100450081
:1014b400114190008281fb000200200006014100de
:1014c4008781490000004500404390000683fb00eb
:1014d4008003eb004838dd00c830de008100700076
:1014e4004830dd0002014000838148007fb097004e
:1014f4008fb8970004024000858248000800be00af
:101504004f020700e6c5450064044400e0844c0033
:10151400aa40900081cf550003003100e14f5000f4
:10152400bcff320008003700e14f500006003a00cb
:101534008041eb000001eb0031c0b3000e007800e5
:1015440066ff0700050037008041eb000001eb0057
:1015540041c0b3000e00780060ff07004f07780019
:101564004f06be004f05be004f04be006f00b10021
:10157400000006008041eb001204e0000500320088
:101584008341e8000382fb0062427a000404e00025
:10159400fbff3a008341e80050ff0700000006000b
:1015a40020429000e34142001041900082c1690052
:1015b4000404e000080032000081e8000442e9006d
:1015c4000482fb006302420004004000d2c16900af
:1015d400800f5100fdff3a000040eb0081cf510025
:1015e40001003a0030c0b300000006000201fa0016
:1015f400889fbe008a9fbe00000578000104780021
:1016040010c0b300e0f79d008844920080cf5400de
:101614002a0036008040780008007800a000070007
:1016240080cf540025003a00080078008a000700a3
:10163400f0f79d0008007800870007006340500021
:1016440080ff9d00160032008044eb00894578003d
:10165400084092000004e00008003200080078000e
:101664007d0007008980fb0062ef2f000f0141001d
:1016740081004100b0409800050037000980fb005c
:1016840061ef2f008f804000008040003b409800b5
:101694008944e8000ff89500894f5000ecff3e00a4
:1016a400080078006c0007008040780060ef2f008d
:1016b4000f004000baff0700e0f79d0062ef2f0023
:1016c4000281470001010900325d78002a10b1004f
:1016d4000a0078004f05be004f04be000080fa00e7
:1016e40000000600889fbe008a1f7800000578006d
:1016f400010478000040eb009d010700804478005d
:1017040010c0b3009a010700c84cdd000080fb0044
:10171400890470000c003a00b84090000040eb00cf
:10172400a2010700c840900010c0b3009f01070049
:101734008041eb000001eb00a1c0b3000a00780077
:10174400e6fe0700050037008041eb000001eb00d6
:10175400b1c0b3000a007800e0fe07004f0578002e
:101764004f04be0000000600f40b200002088000b5
:1017740002026200730520006204200005102000ac
:10178400824a7800834a7800844a780082392000ab
:101794004200990002fc2f00a33d80000301610078
:1017a4008201b300a23d8800f20f2800533f80005d
:1017b400030161000230b300523f880040019100f0
:1017c4008180fb004101980012f0a2009201900078
:1017d4000140210081806900110198000000060089
:1017e400f30b200001088000818161006104200066
:1017f4007205200004102000014a7800024a780093
:10180400034a780003fc2f00447b2000148a610003
:10181400f30f2800a47e2000148a61000304200032
:10182400040880008481610004102000014a7800cb
:10183400024a7800034a7800400191008000eb00de
:10184400410198004001910012f0a2004000910073
:101854001100980000000600f0f891000181fb00df
:10186400e04179000042eb00047079008140e80017
:1018740071f89900e1cf400002003a0084407800fa
:1018840071f89900804092000104e00002003200e7
:101894008140e90001409a000340780000000600fe
:1018a40070f991000104e000070032008041eb0070
:1018b4000241e800e14f410001003a000341780091
:1018c4008140e900faff3a000281fb0060407900a0
:1018d40000000600889fbe00000478008044eb00ee
:1018e4001b00370090009000ee8060001001900013
:1018f4000218a30003003200100190000210a2009d
:101904001200980048009100300090000100e000af
:101914000f003a0098409200e1cf400001003a00e5
:1019240019449a00984092000181fb0000747900e8
:101934008140e80011449a00084092000040e80009
:1019440000449a006b0107001004990021049900d7
:1019540048009100900090000108a300e1ff3a00c4
:101964004f04be00000006008040eb0001409a00d6
:1019740011409a0071f89900000006000204e0008a
:101984000d0032000102e8000241e9000281fb007f
:101994000202420040019100b181fb002301980042
:1019a400c0019100130190000298a300fdff3a00ca
:1019b400848f5000f7ff3a00000006000c02fa0082
:1019c400881f78008a9fbe007e26ef00a626ef00bf
:1019d400ba26ef00e226ef00b206a90081c0b300e8
:1019e400e0de2f000f0040005fff07003201070018
:1019f4008400070040c0b300dd0007000044eb0092
:101a04000004e000620032008840780040c0b30067
:101a1400e6000700b606a80018c0b3005c00370053
:101a240029010700e0de2f000f004000a9ff070096
:101a34006fe895000004e000570032002d01070014
:101a44000fb996009fb99600020050008380580099
:101a5400823e2000820f5000e08f580003003600c1
:101a6400e0de2f000f004000bfff0700e1de2f0083
:101a74008f80400080ef2f000f004000dbfe070046
:101a84000ff89500e34f500038003a000804e000d6
:101a940002003a00b606a80018c0b3001ff895006b
:101aa400e54f50001700320005003e000004e0003e
:101ab40008003200e24f500037003a000b003700b4
:101ac400e74f500017003200e94f500032003a004f
:101ad40020003700a290280011c0b300e0de2f00e0
:101ae4000f004000a3fe07002b00370081ef2f00fa
:101af4008f804000e0de2f000f00400026fe07002c
:101b0400250037008041eb000001eb0061c0b30009
:101b1400e0de2f000f004000f0fd0700c8fd0700c5
:101b24001d0037008041eb000001eb0081c0b300d1
:101b3400e0de2f000f004000e8fd07000030200029
:101b4400000000000000e900fdff3a0028c0b300d7
:101b54001100370081ef2f008f804000e0de2f005e
:101b64000f004000dffe07000b0037000004e00018
:101b740009003a008041eb000001eb0080c0eb005b
:101b8400e0de2f000f004000d4fd07000200370004
:101b94008a3821000b002000d60007008a0f50006d
:101ba4008b8f580003003600e14f54009cff320035
:101bb40002003700e24f540099ff3a00e0de2f00a4
:101bc4000f00400006ff070035000700b606a90015
:101bd40000100200000000000000eb004f05be00f2
:101be4004f0478000080fa00000006000000fb00ab
:101bf40000208800fc03ab00feff320000208000c0
:101c0400000006009f06a900a106a800f423ef0027
:101c1400fc03a900f20b2000000880000001610011
:101c24006004200071052000031020008049780022
:101c3400814978008249780002fc2f00c33d80006e
:101c4400030161000220a000c23d880002f82f00b9
:101c5400243f8000840161000330a000233f8800fa
:101c6400933f8000030161007200b300923f88003b
:101c74000204200004088000040161000310200015
:101c84008049780081497800824978000424ef0073
:101c9400fcc3a90000122800a01f88000000060051
:101ca4009f06a900a106a800f423ef00fc03a900e5
:101cb400f20b200000088000000161006004200095
:101cc40071052000031020008049780081497800c4
:101cd4008249780002fc2f00837b20009309610075
:101ce40002f82f00437e200093096100237f200027
:101cf40093096100020420000308800003016100cd
:101d040003102000804978008149780082497800d6
:101d14000424ef00fcc3a900f423ef000000060034
:101d2400889fbe0058c0b3008044eb00a106a90000
:101d340008407800adff070009407800abff0700ba
:101d4400a106a8000008a300f8ff3a004f04be0053
:101d540000000600f2ff0700a106a90060c0b3005e
:101d6400a2ff0700a106a800a106a9000000060022
:101d7400881f780000447800e9ff0700a106a90045
:101d840030c0b30099ff07000040eb0097ff070045
:101d94000840780095ff07000040eb0093ff070020
:101da400a106a8004f04780000000600889fbe002a
:101db4000044780081447800e6ff070020c0b300a7
:101dc4008aff07000040eb0088ff07000840780006
:101dd40086ff07000940780084ff0700a106a800d9
:101de4004f04be000000060032002400023b8800bd
:101df400213b8800103b88000500fc0050052000b2
:101e0400303b8800a00a2000303b880061e7a8002e
:101e1400000000000000000001002800023b8000d8
:101e240002806000fdff3a0061c7a90000002200a3
:101e34006007b6000000e9004f00de000000060065
:101e440016002400063b8800a60f2000a602880086
:101e5400213b8800103b88000000eb000208bb0017
:101e64000388bb00200020000408bb000588bb00d9
:101e74000500fc0050052000303b8800a00a20002b
:101e8400303b880061e7a80000000000000000006b
:101e940001002800023b800002806000fdff3a0040
:101ea40061c7a900000022006007b6000000e90035
:101eb4004f00de00000006009421ef0000002a001d
:101ec400a00c880000000600f0e723009001e30066
:101ed400070036009021ef00004080001140800090
:101ee40061004000e0804800004088001140880004
:101ef4000000060000408000114080000000060041
:020000040000fa
:101f04000008000004000000800000000000000041
:020000040000fa
:020000040015e5
:047e0000ffff000080
:020000040000fa
:020000040015e5
:047e2000ff1f000040
:020000040000fa
:020000040015e5
:047e300009ffff0047
:020000040000fa
:020000040015e5
:047e3800a7ffff00a1
:020000040000fa
:020000040015e5
:047e40009fffff00a1
:020000040000fa
:020000040015e5
:047e4800fbffff003d
:020000040000fa
:020000040015e5
:047e5000dfffff0051
:020000040000fa
:020000040015e5
:047e5800e7ffff0041
:020000040000fa
:020000040100f9
:04300000ffffff00cf
:00000001FF
